:020000040800F2
:10000000E81C002001010008090100080B0100089C
:100010000D0100080F010008110100080000000098
:1000200000000000000000000000000013010008B4
:100030001501000800000000170100081901000860
:100040001B0100081B0100081B0100081B01000820
:100050001B0100081B010008E10900081B01000842
:100060001B010008290B00081B0100081B010008E8
:10007000D10600081B0100081B0100081B01000835
:100080001B0100081B0100081B0100081B010008E0
:100090001B0100081B0100081B010008750B00086C
:1000A0001B0100081B0100081B0100081B010008C0
:1000B0001B010008A11B00083D1C00081B010008D3
:1000C0001B0100081B0100081B0100081B010008A0
:1000D0001B0100081B0100081B0100081B01000890
:1000E000A10A00081B0100081B010008DFF80CD062
:1000F00000F0DCF8004800476D220008E81C0020F2
:100100000648804706480047FEE7FEE7FEE7FEE7B1
:10011000FEE7FEE7FEE7FEE7FEE7FEE77D1A0008E2
:10012000ED0000080649074A0868504343F23902C7
:10013000104408604008704701490860704700009B
:10014000500000206D4EC64138B5D0E90221491E4D
:1001500001EB410102EBC1014268C1EB011102EB6D
:1001600081010268C1EB011102EB8102D0E9043187
:1001700001EB410103EB81013023A1F5527191FBA9
:10018000F3F4174D6C4302EBC41291FBF3F403FB41
:10019000141100921A2902DB124B1A4400920C220D
:1001A00091FBF2F3104C6343009C04EBC3130093E8
:1001B00091FBF2F302FB13110C4A08E0491E40F2D6
:1001C000A324535C6343009C04EBC31300930029F6
:1001D000F4DC0146684600F023F8009838BD0000C2
:1001E0003F0C0F008051010067C203009C2B0008E8
:1001F00040EA01039B0703D009E008C9121F08C0A9
:10020000042AFAD203E011F8013B00F8013B521E28
:10021000F9D27047014900F003B80000B818002077
:1002200010B500683C22B0FBF2F302FB1303B0FBF5
:10023000F2F00B60B0FBF2F302FB1303B0FBF2F041
:1002400018224B60B0FBF2F302FB1303B0FBF2F099
:10025000021D8B600723B2FBF3F403FB1422800022
:1002600040F2B55300F66C308A61B0FBF3F2B0FB9C
:10027000F3F403FB1400443280084A61C8613B2850
:1002800002D3920700D0401C0022074C13460A619B
:10029000E25C824203D8801A5B1C0B61F8E7401CC9
:1002A000C860084610BD0000A82B0008064C074D8A
:1002B00006E0E06840F0010394E807009847103436
:1002C000AC42F6D3FFF716FFE02B0008002C000825
:1002D00008B50146002000900348009000980844AB
:1002E00000900098008808BD006C004008B500220E
:1002F0000092044A0092009A02440092009A11600F
:1003000008BD0000006C004010B5012005490870D0
:100310000846007828B10020087001F037FF01F08E
:1003200043FF10BD2D00002010B51848007830B1F3
:1003300000201649087001F029FF01F035FF14482C
:10034000007808B30020124908701248007818B9E4
:1003500000F022F801F028FF0E480078012803D1B0
:1003600000F0DEF801F020FF0A480078022803D1EF
:1003700000F05AF901F018FF06480078032803D16D
:1003800000F08AF901F010FF10BD00002D000020E0
:100390002F0000202E00002010B506205D490880A7
:1003A0005D48007818B95D48007801F0EFFE5A48C2
:1003B0000078012805D159490978C1F1FF0001F001
:1003C000E5FE55480078022804D15449097808020E
:1003D00001F0DCFE50480078032806D14F49097827
:1003E000C1F1FF01080201F0D1FE4B48007804285A
:1003F00004D14A490978080401F0C8FE464800784B
:10040000052806D145490978C1F1FF01080401F02A
:10041000BDFE41480078062805D14049097841EAE7
:10042000012001F0B3FE3C480078072807D13B4982
:100430000978C1F1FF0141EA012001F0A7FE364829
:100440000078082805D13549097841EA014001F0D2
:100450009DFE31480078092807D130490978C1F15B
:10046000FF0141EA014001F091FE2B4800780A2883
:1004700008D12A4909780902284A127841EA02403B
:1004800001F084FE244800780B280CD12349097818
:10049000C1F1FF010902214A1278C2F1FF0241EACB
:1004A000024001F073FE1C4800780C2809D11B495A
:1004B000097841EA0121194A127841EA024001F023
:1004C00065FE154800780D280DD114490978C1F151
:1004D000FF0141EA0121114A1278C2F1FF0241EA0B
:1004E000024001F053FE0D480078401C0B49087093
:1004F0000846007868B908480078401C064908702A
:10050000084600780E2190FBF1F201FB120002492F
:10051000087010BD300000204C0000204D0000206D
:100520002DE9F04114203C4908804FF079080AE099
:10053000A8F10100394951F8200041F82800A8F13C
:10054000010000F0FF08B8F1000FF1DC344800783A
:1005500078BBFFF7E7FD072190FBF1F201FB1200EA
:10056000C4B214B9FF202D490860012C03D14FF407
:100570007F402A490860022C03D14FF47F002749AD
:100580000860032C03D14FF6FF7024490860042C47
:1005900003D14FF0FF1021490860052C02D12148FA
:1005A0001E490860062C26D16FF07F401B49086069
:1005B00021E0FFE71A4800780F2819DA1748406849
:1005C000C0F3074515488088C0F30726134807790C
:1005D000142D00D9143D142E00D9143E142F00D927
:1005E000143F280440EA062038430C49086002E022
:1005F00000200A4908600A480078401C0849087031
:1006000008460078322190FBF1F201FB1200044908
:100610000870BDE8F0810000300000205400002088
:100620004E00002000FFFF0070B51420174908801D
:10063000792407E0601E164951F8200041F8240093
:10064000601EC4B2002CF5DC1248007858B9FFF7E0
:1006500069FD0546C01705EB10200016A5EB0060EC
:100660000B49086003E00A484068094908600948E6
:100670000078401C07490870084600780A2190FB62
:10068000F1F201FB12000349087070BD3000002038
:10069000540000204F00002070B54FF4FA700A4952
:1006A000088000240DE0FFF73DFD0546C01705EB6F
:1006B00010200016A5EB0060044941F82400601CDE
:1006C000C4B2792CEFDB70BD300000205400002054
:1006D00010B5202000F022F928B1034800688047B7
:1006E000202000F05BF810BD0000002010B58CB099
:1006F00004460121084600F0CBFE1A4800F068F8D5
:100700001948019002941020039000200490059055
:1007100080200690400007908000089000200990FB
:100720004FF480500A9000200B9001A90D4800F072
:1007300014F90C208DF8000001208DF801008DF8CF
:1007400002008DF80300684600F0B6FC0122022189
:10075000044800F0F9F80121024800F02DF80CB02F
:1007600010BD00001C000240380000400149086034
:10077000704700000000002010B504460021064824
:1007800000F01AF82146044800F005F9012102485A
:1007900000F012F810BD00001C00024000F0805173
:1007A00011B10349086001E0024948607047000048
:1007B000040402400000024021B1026842F001023C
:1007C000026004E002684FF6FE731A400260704750
:1007D00001684FF6FE721140016000210160416026
:1007E0008160C1604B49884208D14A49083949684B
:1007F00041F00F01474A083A51608AE045491431F7
:10080000884208D143490839496841F0F001414A1A
:10081000083A51607DE03F492831884208D13D497E
:100820000839496841F470613A4A083A516070E009
:1008300038493C31884208D136490839496841F481
:100840007041344A083A516063E03249503188427D
:1008500008D130490839496841F470212D4A083AD5
:10086000516056E02B496431884208D12949083942
:10087000496841F47001274A083A516049E0254926
:100880007831884208D123490839496841F07061BC
:10089000204A083A51603CE01F49884206D1011FB6
:1008A000096841F00F01021F116032E01A4914314A
:1008B000884208D11849091F096841F0F001164A19
:1008C000121F116025E014492831884208D11249CD
:1008D000091F096841F470610F4A121F116018E086
:1008E0000D493C31884208D10B49091F096841F480
:1008F0007041094A121F11600BE0074950318842CC
:1009000007D10549091F096841F47021024A121FE5
:1009100011607047080002400804024001460020B0
:10092000002201F0805313B1054B1A6801E0054B1A
:100930001A6802EA01030BB1012000E000207047B1
:1009400000040240000002401AB103680B43036038
:1009500002E003688B430360704710B50022026811
:1009600047F6F0739A430C6A8B6823430C69234360
:100970004C6923438C692343CC6923434C6A23434A
:100980008C6A23431A430260CB6843600B68836020
:100990004B68C36010BD4160704700B5034603E07B
:1009A0004FF47A7000F005F8181EA3F10103F7D197
:1009B00000BD00EBC001C9004FF0E02251610021F1
:1009C00091610521116100BF4FF0E021096901F437
:1009D00080310029F8D004214FF0E02211617047E6
:1009E00010B5012000F010F901284CD10121264852
:1009F00000F023FA002846D12449088024480078D2
:100A000068B90120224908702249087001210003B9
:100A100000F058F90121080200F054F930E01C48B8
:100A2000007801280AD11B480078012806D11A480D
:100A3000007818B901201849087021E0144800789E
:100A400001281DD113480078012819D112480078D7
:100A5000012815D100200E4908700E4908700E4972
:100A6000087001200D49087000F00EFF00214FF4BE
:100A7000805000F027F900214FF4807000F022F937
:100A8000012000F0BBF810BD000C01402000002048
:100A9000250000202600002027000020280000203C
:100AA00010B54FF480511A4800F0C7F970BB4FF4ED
:100AB000805000F0A9F8012828D1002015490880AD
:100AC0001548007801280CD114480078012808D175
:100AD0001348007828B913480088401C1149088041
:100AE00010E00D48007801280CD10C48007801284E
:100AF00008D10B480078012804D10A484088401CDE
:100B0000084948804FF4805000F078F810BD00008C
:100B1000000C0140200000202500002026000020BD
:100B2000270000201400002010B508210E4800F016
:100B300084F9C0B9082000F067F8012813D100201B
:100B40000A4908800A480078012803D10020084992
:100B5000087005E00648007810B9012004490870C3
:100B6000082000F04BF810BD0008014020000020D4
:100B70002900002010B54FF480711A4800F05DF98B
:100B800070BB4FF4807000F03FF8012828D100209E
:100B9000154908801548007801280CD114480078C0
:100BA000012808D11348007828B913480088401E4E
:100BB0001149088010E00D48007801280CD10C483C
:100BC0000078012808D10B480078012804D10A4890
:100BD0004088401E084948804FF4807000F00EF8AD
:100BE00010BD00000008014020000020250000206A
:100BF0002600002027000020140000200149086082
:100C00007047000014040140014600200022074BF9
:100C10001B6803EA0102054B14331B680B4013B138
:100C20000AB1012000E000207047000000040140EC
:100C3000002123498279002A3AD00A4612680368C3
:100C40009A430B461A600A1D126803689A430B1DEB
:100C50001A60027911440A6803681A430A60184A44
:100C60000832126803689A43154B08331A601A1D3C
:100C7000126803689A43124B0C331A604279102AA7
:100C80000ED11A1F126803681A430D4B08331A60FD
:100C90001A1D126803681A43094B0C331A600DE0E1
:100CA0000749427911440A6803681A430A6005E05B
:100CB000027911440A6803689A430A607047000089
:100CC000000401407CB505460C4600958DF80640B1
:100CD00000208DF804000C208DF805006846FFF711
:100CE000A7FF7CBD30B500228B071C0F0F2303FA32
:100CF00004F20B4B8C1053F824309343084C8D10A6
:100D000044F8253023468C1053F824308C07240FE8
:100D100000FA04F42343024C8D1044F8253030BD12
:100D2000080001402DE9F041024600250026002080
:100D300000230024002791F803C00CF00F0591F860
:100D400003C00CF0100CBCF1000F03D091F802C0EE
:100D50004CEA050591F800C0BCF1000F31D01468D1
:100D600000202BE04FF0010C0CFA00F3B1F800C0AA
:100D70000CEA03069E4220D183004FF00F0C0CFAC0
:100D800003F7BC4305FA03FC4CEA040491F803C0E2
:100D9000BCF1280F06D14FF0010C0CFA00FCC2F890
:100DA00014C00AE091F803C0BCF1480F05D14FF020
:100DB000010C0CFA00FCC2F810C0401C0828D1D36A
:100DC0001460B1F800C0BCF1FF0F34DD546800209E
:100DD0002EE000F1080C4FF0010808FA0CF3B1F80E
:100DE00000C00CEA03069E4221D183004FF00F0C95
:100DF0000CFA03F7BC4305FA03FC4CEA040491F82F
:100E000003C0BCF1280F05D100F1080C08FA0CF85A
:100E1000C2F8148091F803C0BCF1480F07D100F16B
:100E2000080C4FF0010808FA0CF8C2F81080401CBA
:100E30000828CED35460BDE8F081024600209368B4
:100E40000B400BB1012000E0002070470AB10161A6
:100E500000E04161704770B504460D4629462046C2
:100E6000FFF7EBFF70BD38B505460C46ADF8004006
:100E700048208DF8030003208DF8020069462846BB
:100E8000FFF750FF38BD000010B500F057F900F033
:100E9000CDFB00F0EFF900F019F801F069F907480F
:100EA00000F0C6FE00F08EFE00F06EFD00F088FC43
:100EB00000F020FF012000F0E5FA10BD6D100008E1
:100EC0000148007870470000240000200EB5012181
:100ED000084600F00DFB20214348FFF7C4FF012125
:100EE0004248FFF7C0FF08213F48FFF7BCFF4FF41F
:100EF00080513E48FFF7B7FF4FF480713A48FFF743
:100F0000B2FF03210020FFF7EDFE01210820FFF7CB
:100F1000D9FE0820019001208DF80A0000208DF8EC
:100F200008000C208DF8090001A8FFF781FE0920B8
:100F30008DF8000001208DF803008DF801008DF878
:100F40000200684600F0B8F800210120FFF7CAFE51
:100F500001210846FFF7B6FE012001908DF80A0036
:100F600000208DF808000C208DF8090001A8FFF77B
:100F70005FFE06208DF8000001208DF803008DF83B
:100F800001008DF80200684600F096F80C2101205F
:100F9000FFF7A8FE00214FF48050FFF793FE2820B2
:100FA0008DF8000001208DF803008DF801008DF808
:100FB0000200684600F080F808210020FFF792FE4A
:100FC00000214FF48070FFF77DFE17208DF80000A0
:100FD00001208DF803008DF801008DF802006846AD
:100FE00000F06AF80EBD000000080140000C01404E
:100FF00010B5174800781749087000201449087088
:1010000020211548FFF727FF40B91420FFF7C5FC42
:1010100002200F4908701420FFF7BFFC0D4800782C
:10102000022814D10A48007888B90C480078401C7E
:101030000A49087008460078032808DD0878C117B7
:1010400000EB91718910A0EB8101044A117010BD71
:101050002A0000202B00002000080140240000206E
:1010600000200149087070472400002010B50F4887
:101070000088401C0D49088008460088142803DBBE
:1010800000200880FFF7B4FF08484088401C07494B
:1010900048800846408806490988884205DB0020C8
:1010A0000249488001200349087010BD4800002013
:1010B000300000202F00002070B5002100230F22F7
:1010C000C47804B3154C246804F4E064C4F5E06407
:1010D000210AC1F10403CA40447804FA03F1847878
:1010E0001440214309010E4C0678A155047804F000
:1010F0001F050124AC4005786D11AD0005F1E02518
:10110000C5F8004109E0047804F01F050124AC4053
:10111000044D0678761145F8264070BD0CED00E0D0
:1011200000E400E080E100E002490143024A11606E
:10113000704700000000FA050CED00E010B54FF418
:10114000A060FFF7F1FF10BD70B500240EE0002194
:10115000204600F0F0F8002504E0002000F07CF9C3
:10116000681CC5B2802DF8DB601CC4B2082CEEDB15
:1011700070BD000008B50121082000F0B9F9142065
:101180008DF8030003208DF802004FF48070ADF855
:10119000000069460A48FFF7C5FD4FF40070ADF83E
:1011A000000069460648FFF7BDFD01221102044810
:1011B000FFF74CFE012251020148FFF747FE08BD30
:1011C000000C014070B50546002415E08020204148
:1011D00000EA05024FF400710E48FFF737FE0122C6
:1011E00011020C48FFF732FE00224FF480710948CB
:1011F000FFF72CFE601CC4B2082CE7DB01221102B1
:101200000448FFF723FE00224FF480710148FFF7E6
:101210001DFE70BD000C014010B5012251020A48AC
:10122000FFF714FE012211020748FFF70FFE00220C
:101230004FF400710448FFF709FE00224FF480715B
:101240000148FFF703FE10BD000C014010B500225D
:101250004FF400710648FFF7F9FD0122110204481E
:10126000FFF7F4FD012251020148FFF7EFFD10BD29
:10127000000C014070B5002406E0002500E06D1C64
:10128000B5F57A7FFBD3641CB4F57A7FF5D3FFF70D
:1012900071FFAE2000F0D0F8D52000F0CDF880200E
:1012A00000F0CAF8A82000F0C7F83F2000F0C4F80A
:1012B000D32000F0C1F8002000F0BEF8402000F07C
:1012C000BBF8A12000F0B8F8C82000F0B5F8DA208B
:1012D00000F0B2F8122000F0AFF8812000F0ACF876
:1012E000CF2000F0A9F8D92000F0A6F8F12000F0F6
:1012F000A3F8DB2000F0A0F8302000F09DF8A42037
:1013000000F09AF8A62000F097F88D2000F094F8ED
:10131000142000F091F8AF2000F08EF8FFF714FFD2
:1013200070BD10B50246012000E050430B1EA1F134
:101330000101FAD110BD70B505460C4645F0B0006C
:1013400000F07AF8102141EA141000F075F804F06A
:101350000F0000F071F870BD2DE9F04105460E4612
:101360001746721ED206110E6A1E5206100EFFF7A5
:10137000E2FF002409E0A7F12001134A02EB01116A
:10138000085D00F069F8601CC4B2082CF3DB721E23
:10139000D206110E6A1E012303EB4202D0B2FFF700
:1013A000CAFF00240BE0A7F12001074A02EB01125B
:1013B00004F10801505C00F04FF8601CC4B2082C26
:1013C000F1DBBDE8F0810000AC2500082DE9F04715
:1013D00080460E4617461D46002415E0281B411E78
:1013E0000A20FFF79EFFB7FBF0F00A21B0FBF1F2F5
:1013F00001FB120000F130093019C1B24A464046E3
:10140000FFF7AAFF601CC4B2AC42E7DBBDE8F0877F
:101410002DE9F04107460E461546002407E02A5DF7
:101420003019C1B23846FFF797FF601CC4B2285D7F
:101430000028F4D1BDE8F08110B50446FFF7ECFEBA
:101440007820FFF7BFFE0020FFF7BCFE2046FFF725
:10145000B9FEFFF7FBFE10BD10B50446FFF7DCFE3A
:101460007820FFF7AFFE4020FFF7ACFE2046FFF7E5
:10147000A9FEFFF7EBFE10BD0149086270470000AE
:1014800000000E420149086070470000A0000E42B3
:1014900029B1064A52690243044B5A6104E0034AE7
:1014A00052698243014B5A617047000000100240AC
:1014B00029B1064AD2690243044BDA6104E0034AC7
:1014C000D2698243014BDA6170470000001002408C
:1014D00029B1064A12690243044B1A6104E0034A27
:1014E00012698243014B1A617047000000100240EC
:1014F00029B1064A92690243044B9A6104E0034A07
:1015000092698243014B9A617047000000100240CB
:1015100029B1064AD2680243044BDA6004E0034A68
:10152000D2688243014BDA6070470000001002402D
:101530000F48006840F001000D4908600846406807
:101540000C4908400A494860084600680A490840B2
:10155000074908600846006820F4802008600846B3
:10156000406820F4FE0048604FF41F008860704718
:10157000001002400000FFF8FFFFF6FE10B5014624
:101580000022002300204A11012A02D1094C2368BD
:1015900006E0022A02D1074C236A01E0054C636A87
:1015A00001F01F02012494401C400CB1012000E016
:1015B000002010BD001002400248406800F00C00FE
:1015C000704700000010024001460020034A5068A6
:1015D00020F0F00008435060704700000010024007
:1015E0001149096821F480310F4A116011460968D8
:1015F00021F480211160B0F5803F03D0B0F5802F39
:101600000ED106E00849096841F48031064A1160AC
:1016100007E00549096841F4A021034A116000E090
:1016200000BF00BF704700000010024010B5FFF778
:101630007FFF4FF48030FFF7D3FF00F087F80446B8
:10164000012C1ED14FF4E011000400F057F80020E7
:10165000FFF7BAFFA00200F033F8002000F03CF8DA
:10166000012000F045F800BF3920FFF787FF002870
:10167000FAD0022000F05EF800BFFFF79DFF0828B7
:10168000FBD101211C20FFF733FF10BD00210B4AC5
:1016900011700A4A203A82F82010012802D004284A
:1016A00008D103E00121054A117004E00521034A35
:1016B000117000E000BF00BF704700002010024022
:1016C00001460020034A506820F4E060084350605F
:1016D000704700000010024001460020034A506895
:1016E00020F4605040EAC100506070470010024092
:1016F000014908667047000000004242024600208F
:10170000044B586820F47C1042EA01031843014B53
:10171000586070470010024001490860704700009F
:101720003C0442420249096A0143014A116270477E
:101730000010024001460020034A506820F00300D8
:1017400008435060704700000010024038B5002088
:1017500000900024002500BF3120FFF70FFF054651
:101760000098401C00900098B0F5A06F01D0002DAB
:10177000F2D03120FFF702FF08B1012400E000247D
:10178000204638BD0348008840F010000149088019
:101790007047000004280040034800884FF6EF71AE
:1017A0000840014908807047042800400021034890
:1017B0000188001F008841EA004070471C28004053
:1017C00010B501210807FFF773FE0121C806FFF7D6
:1017D0006FFE0120FFF750FE0420FEF779FD4AF26C
:1017E000A551884226D00120FFF750FF00BF4120BD
:1017F000FFF7C4FE0128FAD10002FFF793FF012092
:10180000FFF78AFF00F0AEF800F0A2F800F0A0F8B1
:10181000FFF7B8FF47F6FF7000F064F800F098F8A3
:1018200000F070F8FFF7B8FF4AF2A5510420FEF768
:101830005DFD03E000F096F800F08AF810BD0000AE
:1018400010B58CB0FFF7B2FF00F5E1400B900BA88C
:10185000FEF7E0FC04462C2221466846FEF7C8FC51
:10186000059800F26C70074908800498401C488075
:10187000039888800298C880019808810098488160
:101880000CB010BD0800002010B50C4800884FF4C3
:101890006161484309494988C1EB011100EB8100AE
:1018A00006498988084406490880FFF77FFFFFF74B
:1018B0007DFF0449086000F04BF810BD14000020C3
:1018C0001A0000201C00002000B50246FFF75AFF56
:1018D000100C03490880091D0A80FFF75DFF00BD59
:1018E0001828004000B50246FFF74CFFC2F3034042
:1018F00003490880091D0A80FFF74EFF00BD000064
:101900000828004010B58CB010480088A0F26C7018
:1019100006900E484088401E05900C488088049030
:101920000A48C08803900948008902900748408906
:10193000019001A8FEF708FCA0F5E1442046FFF75E
:10194000C3FF00F005F80CB010BD00000800002037
:1019500000BF0348008800F020000028F9D070473D
:1019600004280040074800884FF6F77108400549F1
:10197000088000BF0348008800F008000028F9D064
:10198000704700000428004010B500210420FEF735
:10199000ADFC10BD10B500F001F810BD0CB5002075
:1019A000019000903348006840F48030314908606D
:1019B00000BF3048006800F4003000900198401CDF
:1019C0000190009818B90198B0F5A06FF1D129489D
:1019D000006800F4003010B10120009001E0002008
:1019E00000900098012843D12348006840F010007F
:1019F000214908600846006820F003000860084696
:101A0000006840F0020008601A48406819494860C0
:101A10000846406848600846406840F48060486076
:101A20000846406820F47C1048600846406840F44E
:101A3000E81048600846006840F08070086000BF09
:101A40000C48006800F000700028F9D00948406890
:101A500020F00300074948600846406840F0020053
:101A6000486000BF0348406800F00C000828F9D126
:101A70000CBD0000001002400020024010B51348C9
:101A8000006840F0010011490860084640681049AC
:101A900008400E494860084600680E4908400B4956
:101AA00008600846006820F4802008600846406806
:101AB00020F4FE0048604FF41F008860FFF76AFFC3
:101AC0004FF000600449086010BD000000100240A3
:101AD0000000FFF8FFFFF6FE08ED00E010B5044639
:101AE00021464FF0804000F047F910BD00B589B0A5
:101AF00001210846FFF7DCFC01210420FFF7F8FC78
:101B000018208DF823000220ADF8200003208DF866
:101B1000220008A91D48FFF705F94FF0804000F0AA
:101B200055F95920ADF818000020ADF81400ADF8B3
:101B30001A00ADF8160005A94FF0804000F0B8FA81
:101B40006020ADF804000120ADF806000020ADF8DB
:101B50000A00ADF80C0001A94FF0804000F054FAE3
:101B60000121880700F014F900220D21880700F0F8
:101B700027F901221102880500F019F900214FF020
:101B8000804000F0F9F809B000BD000000080140F5
:101B900010B5044621464FF0804000F087FA10BD92
:101BA00010B50121054800F005FA30B1044800687D
:101BB00080470121014800F0D9F810BD0004004021
:101BC000040000201FB501210220FFF771FC174817
:101BD00000F0FCF840F2E730ADF808004720ADF81F
:101BE00004000020ADF80A00ADF8060001A90F4876
:101BF00000F05EFA1D208DF8000000208DF8010035
:101C00008DF8020001208DF803006846FFF754FAB2
:101C10000121064800F0AAF801221146034800F00D
:101C2000E3F90121014800F0A7F81FBD00040040BE
:101C300001490860704700000400002010B5012130
:101C4000254800F0C0F9012845D124480088401CEF
:101C50002249088008460088B0F5167F05DB012080
:101C60001F49087000201D4908801E48007801287F
:101C70002DD11D480088401E1B4908800846008859
:101C80004FF4616190FBF1F0184908801648008814
:101C90004FF4616190FBF1F201FB12003C2190FBDB
:101CA000F1F012494880104800883C2190FBF1F285
:101CB00001FB12000D4988800B48008838B90020CC
:101CC0000849087006490870012009490870012177
:101CD000014800F04EF810BD000800402000002030
:101CE00029000020280000201A00002014000020F5
:101CF000220000201FB501210420FFF7D9FB1A485C
:101D000000F07BF90020ADF80A00ADF8060042F2C1
:101D10000F70ADF8080041F61F40ADF80400002038
:101D20008DF80C0001A9104800F0C2F901210E48FD
:101D300000F01CF8012211460B4800F055F91E2056
:101D40008DF8000001208DF8030002208DF80100BD
:101D500001208DF802006846FFF7AEF90121024824
:101D600000F00AF81FBD000000080040CA430282CC
:101D70007047CA430282704721B1028842F00102D3
:101D8000028004E002884FF6FE731A40028070471A
:101D900031B1B0F8442042F40042A0F8442005E0FC
:101DA000B0F84420C2F30E02A0F8442070471AB1E4
:101DB00083890B43838102E083898B43838170474E
:101DC00041EA0203A0F848307047000010B504460D
:101DD0006848844208D10121C014FFF799FB002113
:101DE000E014FFF795FBC4E0B4F1804F08D1012166
:101DF0000846FFF76DFB00210120FFF769FBB8E003
:101E00005D48844208D101210220FFF761FB0021D7
:101E10000220FFF75DFBACE05848844208D1012165
:101E20000420FFF755FB00210420FFF751FBA0E041
:101E30005348844208D101210820FFF749FB0021C3
:101E40000820FFF745FB94E04E48844208D1012169
:101E50001020FFF73DFB00211020FFF739FB88E041
:101E60004948844208D101212020FFF731FB00219D
:101E70002020FFF72DFB7CE04448844208D101215B
:101E80004014FFF745FB00216014FFF741FB70E0B1
:101E90003F48844209D10121C804FFF739FB0021E2
:101EA0004FF40020FFF734FB63E03A48844209D145
:101EB00001210805FFF72CFB00214FF48010FFF7EC
:101EC00027FB56E03448844209D101214805FFF739
:101ED0001FFB00214FF40010FFF71AFB49E02F48C9
:101EE000844208D101214020FFF7F2FA002140206E
:101EF000FFF7EEFA3DE02A48844208D10121802014
:101F0000FFF7E6FA00218020FFF7E2FA31E02548EA
:101F1000844208D101218015FFF7DAFA0021A015CB
:101F2000FFF7D6FA25E02048844209D101210804B0
:101F3000FFF7EEFA00214FF48030FFF7E9FA18E0DE
:101F40001A48844209D101214804FFF7E1FA00212F
:101F50004FF40030FFF7DCFA0BE01548844208D15B
:101F600001218804FFF7D4FA00214FF48020FFF705
:101F7000CFFA10BD002C01400004004000080040D2
:101F8000000C0040001000400014004000340140EC
:101F9000004C014000500140005401400018004036
:101FA000001C00400020004000400140004401406F
:101FB0000048014002460020138A0B400BB101206B
:101FC00000E00020704730B50246002000230024C6
:101FD000158A05EA0103958905EA010413B10CB1DC
:101FE000012000E0002030BD1AB183890B438381BA
:101FF00002E083898B438381704701894FF6F87231
:10200000114001817047000070B5002400220023B8
:10201000058C4FF6EF7635400584028C8388048B5F
:1020200048F6FF752C404FF6FF452C400D884FF6C3
:10203000FF7606EA05252C434FF6DF752A400D8909
:1020400006EA05152A434D8806EA05152A43154D6B
:10205000A84202D0144DA8421DD14FF67F752A40E8
:102060004D894FF6FF7606EA05152A434FF6BF75F0
:102070002A408D8806EA05152A434FF6FF352B4086
:102080004FF2FF752B408D8906EA85052B43CD89DC
:1020900006EA85052B4383800483CD880587028467
:1020A00070BD0000002C01400034014001877047E2
:1020B000002202881D4B98420ED01D4B98420BD037
:1020C000B0F1804F08D01B4B984205D01A4B984274
:1020D00002D01A4B984204D14FF68F731A404B88A6
:1020E0001A43174B984207D0164B984204D04FF62C
:1020F000FF431A40CB881A4302808B8883850B8864
:1021000003850A4B98420BD0094B984208D00E4BDE
:10211000984205D00D4B984202D00D4B984201D108
:102120000B7A03860123838270470000002C014054
:10213000003401400004004000080040000C004052
:1021400000100040001400400040014000440140E5
:102150000048014010B50020FFF71AFD0020FFF7EE
:10216000BDFC01200149087010BD000023000020C3
:1021700010B50448FEF7FAFA0348FEF7B7FAFFF77E
:10218000B5FC10BD55210008340200200146002096
:1021900004E0044A42F82010421CD0B27828F8DB50
:1021A000704700005400002070B5002422E0002594
:1021B0001CE0194850F824004FF400012941084060
:1021C00048B13C2104EB440005EBC000401C134A1D
:1021D00022F8101008E01E2104EB440005EBC000BB
:1021E000401C0E4A22F81010681CC5B2182DE0DB06
:1021F000601CC4B2782CDADB40F64130FEF7BCFA42
:102200000120FFF76BFC00BF054800780028FBD0D9
:1022100000200349087070BD5400002034020020E3
:102220002300002010B501200649087008460078F8
:1022300030B1002008700448FFF7A8FFFFF7B4FF93
:1022400010BD00002D0000202F2F2F0002E008C835
:10225000121F08C1002AFAD170477047002001E020
:1022600001C1121F002AFBD170470000FEF70CFECF
:1022700060E10024B0480578FEF722FEAE49087000
:1022800008460078854202D00020AC490880ACA204
:1022900003210120FFF7BCF8ABA207210220FFF7C2
:1022A000B7F8A9A20A210220FFF7B2F8A7A20321DA
:1022B0000846FFF7ADF8A3A20A210320FFF7A8F80C
:1022C000A0A20D210320FFF7A3F8A2A2032104205E
:1022D000FFF79EF89BA20B210420FFF799F899A223
:1022E0000E210420FFF794F8FFF7AAFA9B48028812
:1022F000042303210220FFF769F89848428802234B
:1023000008211846FFF762F89448828802230B21BF
:102310001846FFF75BF89148C28802230821032082
:10232000FFF754F88D48028902230B210320FFF7A1
:102330004DF88A48428902230E210320FFF746F810
:1023400087480288022309210420FFF73FF88448C8
:10235000428802230C210420FFF738F88048828845
:1023600002230F210420FFF731F87E48007890B94E
:102370007D48008878B97A4800884FF46161484305
:1023800077494988C1EB011100EB810074498988C4
:1023900008447549088075480078012805D1042053
:1023A0006549087000206549088063480078052861
:1023B00049D2DFE800F0030F1B2A3900FDF7A4FF24
:1023C0006B485D49097850F8212009210120FFF769
:1023D0001FF838E0FFF726FF65485749097850F89D
:1023E000212009210120FFF713F82CE00120614989
:1023F0000870FDF799FF5E484F49097850F8212091
:1024000009210120FFF704F81DE002205949087056
:10241000FDF78AFF56484849097850F821200921DC
:102420000120FEF7F5FF0EE0002052490870FDF78D
:102430007BFF4F484049097850F8212009210120AD
:10244000FEF7E6FF00BF00BF4B48007801281FD110
:10245000FDF75AFFFEF778FE00214FF48050FEF79B
:1024600031FC00214FF48070FEF72CFC002101208C
:10247000FEF728FC00BF404800780128FBD0002070
:102480002E49088001210846FEF71CFCFEF7E8FDF6
:102490004BE03A4804783A480078012816D1394888
:1024A000007898B938A209210420FEF7B1FF4FF453
:1024B000FA70FEF772FA2A480288022309210420E2
:1024C000FEF784FF4FF4FA70FEF767FA2C480078A5
:1024D000012817D12B480078012813D12AA20C21FA
:1024E0000420FEF795FF4FF4FA70FEF756FA1C48E9
:1024F000428802230C210420FEF768FF4FF4FA7093
:10250000FEF74BFA012C10D11C48007868B91FA2C5
:1025100009210420FEF77CFF40F2EE20FEF73DFA91
:102520001EA203210420FEF773FF1448007801283F
:10253000AFD000BF9DE600002C000020200000204E
:102540004D6F64653A0000002D00000054696D6510
:102550003A000000416C61726D3A000008000020F2
:1025600014000020280000201A0000202200002073
:10257000340000202E00002029000020250000202B
:102580002600002027000020202000005345542171
:10259000202020202020202020000000416C61729B
:1025A0006D3A58583A58583A585800000000000000
:1025B000000000000000000000000000000000F823
:1025C00000000000000000333000000000100C0686
:1025D000100C0600000000000000000040C0784021
:1025E000C0784000043F04043F040400007088FCED
:1025F00008300000001820FF211E0000F008F00045
:10260000E018000000211C031E211E0000F00888B5
:10261000700000001E2123241927211010160E001F
:10262000000000000000000000000000000000E0CA
:1026300018040200000000071820400000020418DF
:10264000E00000000040201807000000404080F03B
:10265000804040000202010F01020200000000F071
:10266000000000000101011F010101000000000045
:102670000000000080B070000000000000000000BA
:102680000000000000010101010101010000000043
:1026900000000000003030000000000000000000DA
:1026A00080601804006018060100000000E01008B7
:1026B0000810E000000F102020100F00001010F88C
:1026C000000000000020203F2020000000700808CB
:1026D000088870000030282422213000003008884B
:1026E000884830000018202020110E000000C02073
:1026F00010F8000000070424243F240000F8088894
:10270000880808000019212020110E0000E0108820
:1027100088180000000F112020110E000038080852
:10272000C83808000000003F000000000070880862
:1027300008887000001C222121221C0000E01008E3
:102740000810E0000000312222110F00000000C03C
:10275000C0000000000000303000000000000080D9
:1027600000000000000080600000000000008040C9
:1027700020100800000102040810200040404040E2
:102780004040400004040404040404000008102035
:10279000408000000020100804020100007048087A
:1027A0000808F0000000003036010000C030C828E2
:1027B000E810E0000718272423140B000000C0389D
:1027C000E0000000203C23020227382008F8888817
:1027D00088700000203F202020110E00C030080823
:1027E00008083800071820202010080008F80808FA
:1027F0000810E000203F202020100F0008F88888F3
:10280000E8081000203F20202320180008F88888BE
:10281000E8081000203F200003000000C030080836
:102820000838000007182020221E020008F80800BF
:102830000008F808203F210101213F20000808F886
:10284000080800000020203F2020000000000808A9
:10285000F8080800C08080807F00000008F888C069
:1028600028180800203F20012638200008F808001A
:1028700000000000203F20202020300008F8F80051
:10288000F8F80800203F003F003F200008F830C063
:102890000008F808203F200007183F00E010080853
:1028A0000810E0000F10202020100F0008F8080882
:1028B0000808F000203F210101010000E010080895
:1028C0000810E0000F18242438504F0008F88888BA
:1028D00088887000203F2000030C3020007088089A
:1028E000080838000038202121221C00180808F8A8
:1028F000080818000000203F2000000008F8080029
:102900000008F808001F202020201F0008788800F9
:1029100000C83808000007380E010000F80800F869
:102920000008F800033C0700073C03000818688013
:102930008068180820302C03032C30200838C80089
:10294000C83808000000203F2000000010080808D8
:10295000C83808002038262120201800000000FE7A
:10296000020202000000007F40404000000C30C026
:1029700000000000000000010638C0000002020252
:10298000FE000000004040407F0000000000040204
:10299000020204000000000000000000000000002F
:1029A000000000008080808080808080000202041F
:1029B0000000000000000000000000000000808017
:1029C000808000000019242222223F2008F8008085
:1029D00080000000003F112020110E000000008048
:1029E00080800000000E11202020110000000080D7
:1029F0008088F800000E112020103F200000808009
:102A000080800000001F222222221300008080F01C
:102A1000888888180020203F202000000000808047
:102A200080808000006B94949493600008F800808C
:102A300080800000203F210000203F2000809898E7
:102A4000000000000020203F202000000000008047
:102A50009898000000C08080807F000008F8000087
:102A600080808000203F24022D302000000808F8DC
:102A7000000000000020203F202000008080808097
:102A800080808000203F20003F20003F8080008029
:102A900080800000203F210000203F200000808037
:102AA00080800000001F202020201F0080800080E8
:102AB0008000000080FFA12020110E000000008097
:102AC00080808000000E112020A0FF808080800088
:102AD0008080800020203F212000010000008080B5
:102AE000808080000033242424241900008080E0AA
:102AF000808000000000001F202000008080000077
:102B000000808000001F202020103F208080800057
:102B10000080808000010E30080601008080008067
:102B2000008080800F300C030C300F00008080008C
:102B3000808080000020312E0E31200080808000B7
:102B40000080808080818E70180601000080808067
:102B5000808080000021302C222130000000000005
:102B6000807C020200000000003F404000000000A6
:102B7000FF00000000000000FF0000000002027CD7
:102B8000800000000040403F0000000000060101FE
:102B90000202040400000000000000001F1C1F1EB1
:102BA0001F1E1F1F1E1F1E1F1F1D1F1E1F1E1F1F3C
:102BB0001E1F1E1F52474231202020005247423222
:102BC00020202000436C6F736564200054696D659C
:102BD000205570210000000052656164696E670035
:102BE000002C000800000020540000004C220008C7
:102BF000542C000854000020941C00005C220008A3
:102C00000000000000000000E7070B0016001000A5
:102C10002800000004001E0000000000000000006A
:102C200000000000000000000000000000010000A3
:102C300000000000C42B0008D82B0008B42B0008AB
:102C4000BC2B0008CC2B0008000000000000000096
:042C50000000000080
:04000005080000ED02
:00000001FF
